{
  "_format": "hh-sol-artifact-1",
  "contractName": "CarbonCreditToken",
  "sourceName": "contracts/CarbonCreditToken.sol",
  "abi": [
    {
      "inputs": [
        {
          "internalType": "string",
          "name": "name",
          "type": "string"
        },
        {
          "internalType": "string",
          "name": "symbol",
          "type": "string"
        }
      ],
      "stateMutability": "nonpayable",
      "type": "constructor"
    },
    {
      "inputs": [],
      "name": "AccessControlBadConfirmation",
      "type": "error"
    },
    {
      "inputs": [
        {
          "internalType": "address",
          "name": "account",
          "type": "address"
        },
        {
          "internalType": "bytes32",
          "name": "neededRole",
          "type": "bytes32"
        }
      ],
      "name": "AccessControlUnauthorizedAccount",
      "type": "error"
    },
    {
      "inputs": [
        {
          "internalType": "address",
          "name": "spender",
          "type": "address"
        },
        {
          "internalType": "uint256",
          "name": "allowance",
          "type": "uint256"
        },
        {
          "internalType": "uint256",
          "name": "needed",
          "type": "uint256"
        }
      ],
      "name": "ERC20InsufficientAllowance",
      "type": "error"
    },
    {
      "inputs": [
        {
          "internalType": "address",
          "name": "sender",
          "type": "address"
        },
        {
          "internalType": "uint256",
          "name": "balance",
          "type": "uint256"
        },
        {
          "internalType": "uint256",
          "name": "needed",
          "type": "uint256"
        }
      ],
      "name": "ERC20InsufficientBalance",
      "type": "error"
    },
    {
      "inputs": [
        {
          "internalType": "address",
          "name": "approver",
          "type": "address"
        }
      ],
      "name": "ERC20InvalidApprover",
      "type": "error"
    },
    {
      "inputs": [
        {
          "internalType": "address",
          "name": "receiver",
          "type": "address"
        }
      ],
      "name": "ERC20InvalidReceiver",
      "type": "error"
    },
    {
      "inputs": [
        {
          "internalType": "address",
          "name": "sender",
          "type": "address"
        }
      ],
      "name": "ERC20InvalidSender",
      "type": "error"
    },
    {
      "inputs": [
        {
          "internalType": "address",
          "name": "spender",
          "type": "address"
        }
      ],
      "name": "ERC20InvalidSpender",
      "type": "error"
    },
    {
      "inputs": [],
      "name": "EnforcedPause",
      "type": "error"
    },
    {
      "inputs": [],
      "name": "ExpectedPause",
      "type": "error"
    },
    {
      "inputs": [],
      "name": "ReentrancyGuardReentrantCall",
      "type": "error"
    },
    {
      "anonymous": false,
      "inputs": [
        {
          "indexed": true,
          "internalType": "address",
          "name": "owner",
          "type": "address"
        },
        {
          "indexed": true,
          "internalType": "address",
          "name": "spender",
          "type": "address"
        },
        {
          "indexed": false,
          "internalType": "uint256",
          "name": "value",
          "type": "uint256"
        }
      ],
      "name": "Approval",
      "type": "event"
    },
    {
      "anonymous": false,
      "inputs": [
        {
          "indexed": true,
          "internalType": "uint256",
          "name": "creditId",
          "type": "uint256"
        },
        {
          "indexed": true,
          "internalType": "address",
          "name": "to",
          "type": "address"
        },
        {
          "indexed": false,
          "internalType": "uint256",
          "name": "amount",
          "type": "uint256"
        },
        {
          "indexed": false,
          "internalType": "string",
          "name": "projectId",
          "type": "string"
        },
        {
          "indexed": false,
          "internalType": "enum CarbonCreditToken.CreditType",
          "name": "creditType",
          "type": "uint8"
        }
      ],
      "name": "CreditMinted",
      "type": "event"
    },
    {
      "anonymous": false,
      "inputs": [
        {
          "indexed": true,
          "internalType": "uint256",
          "name": "creditId",
          "type": "uint256"
        },
        {
          "indexed": true,
          "internalType": "address",
          "name": "by",
          "type": "address"
        },
        {
          "indexed": false,
          "internalType": "uint256",
          "name": "amount",
          "type": "uint256"
        },
        {
          "indexed": false,
          "internalType": "string",
          "name": "reason",
          "type": "string"
        }
      ],
      "name": "CreditRetired",
      "type": "event"
    },
    {
      "anonymous": false,
      "inputs": [
        {
          "indexed": true,
          "internalType": "uint256",
          "name": "creditId",
          "type": "uint256"
        },
        {
          "indexed": false,
          "internalType": "string",
          "name": "ipfsHash",
          "type": "string"
        }
      ],
      "name": "MetadataUpdated",
      "type": "event"
    },
    {
      "anonymous": false,
      "inputs": [
        {
          "indexed": false,
          "internalType": "address",
          "name": "account",
          "type": "address"
        }
      ],
      "name": "Paused",
      "type": "event"
    },
    {
      "anonymous": false,
      "inputs": [
        {
          "indexed": true,
          "internalType": "string",
          "name": "projectId",
          "type": "string"
        },
        {
          "indexed": true,
          "internalType": "address",
          "name": "verifier",
          "type": "address"
        }
      ],
      "name": "ProjectVerified",
      "type": "event"
    },
    {
      "anonymous": false,
      "inputs": [
        {
          "indexed": true,
          "internalType": "bytes32",
          "name": "role",
          "type": "bytes32"
        },
        {
          "indexed": true,
          "internalType": "bytes32",
          "name": "previousAdminRole",
          "type": "bytes32"
        },
        {
          "indexed": true,
          "internalType": "bytes32",
          "name": "newAdminRole",
          "type": "bytes32"
        }
      ],
      "name": "RoleAdminChanged",
      "type": "event"
    },
    {
      "anonymous": false,
      "inputs": [
        {
          "indexed": true,
          "internalType": "bytes32",
          "name": "role",
          "type": "bytes32"
        },
        {
          "indexed": true,
          "internalType": "address",
          "name": "account",
          "type": "address"
        },
        {
          "indexed": true,
          "internalType": "address",
          "name": "sender",
          "type": "address"
        }
      ],
      "name": "RoleGranted",
      "type": "event"
    },
    {
      "anonymous": false,
      "inputs": [
        {
          "indexed": true,
          "internalType": "bytes32",
          "name": "role",
          "type": "bytes32"
        },
        {
          "indexed": true,
          "internalType": "address",
          "name": "account",
          "type": "address"
        },
        {
          "indexed": true,
          "internalType": "address",
          "name": "sender",
          "type": "address"
        }
      ],
      "name": "RoleRevoked",
      "type": "event"
    },
    {
      "anonymous": false,
      "inputs": [
        {
          "indexed": true,
          "internalType": "address",
          "name": "from",
          "type": "address"
        },
        {
          "indexed": true,
          "internalType": "address",
          "name": "to",
          "type": "address"
        },
        {
          "indexed": false,
          "internalType": "uint256",
          "name": "value",
          "type": "uint256"
        }
      ],
      "name": "Transfer",
      "type": "event"
    },
    {
      "anonymous": false,
      "inputs": [
        {
          "indexed": false,
          "internalType": "address",
          "name": "account",
          "type": "address"
        }
      ],
      "name": "Unpaused",
      "type": "event"
    },
    {
      "inputs": [],
      "name": "BURNER_ROLE",
      "outputs": [
        {
          "internalType": "bytes32",
          "name": "",
          "type": "bytes32"
        }
      ],
      "stateMutability": "view",
      "type": "function"
    },
    {
      "inputs": [],
      "name": "DEFAULT_ADMIN_ROLE",
      "outputs": [
        {
          "internalType": "bytes32",
          "name": "",
          "type": "bytes32"
        }
      ],
      "stateMutability": "view",
      "type": "function"
    },
    {
      "inputs": [],
      "name": "MINTER_ROLE",
      "outputs": [
        {
          "internalType": "bytes32",
          "name": "",
          "type": "bytes32"
        }
      ],
      "stateMutability": "view",
      "type": "function"
    },
    {
      "inputs": [],
      "name": "PAUSER_ROLE",
      "outputs": [
        {
          "internalType": "bytes32",
          "name": "",
          "type": "bytes32"
        }
      ],
      "stateMutability": "view",
      "type": "function"
    },
    {
      "inputs": [],
      "name": "VERIFIER_ROLE",
      "outputs": [
        {
          "internalType": "bytes32",
          "name": "",
          "type": "bytes32"
        }
      ],
      "stateMutability": "view",
      "type": "function"
    },
    {
      "inputs": [
        {
          "internalType": "address",
          "name": "owner",
          "type": "address"
        },
        {
          "internalType": "address",
          "name": "spender",
          "type": "address"
        }
      ],
      "name": "allowance",
      "outputs": [
        {
          "internalType": "uint256",
          "name": "",
          "type": "uint256"
        }
      ],
      "stateMutability": "view",
      "type": "function"
    },
    {
      "inputs": [
        {
          "internalType": "address",
          "name": "spender",
          "type": "address"
        },
        {
          "internalType": "uint256",
          "name": "value",
          "type": "uint256"
        }
      ],
      "name": "approve",
      "outputs": [
        {
          "internalType": "bool",
          "name": "",
          "type": "bool"
        }
      ],
      "stateMutability": "nonpayable",
      "type": "function"
    },
    {
      "inputs": [
        {
          "internalType": "address",
          "name": "account",
          "type": "address"
        }
      ],
      "name": "balanceOf",
      "outputs": [
        {
          "internalType": "uint256",
          "name": "",
          "type": "uint256"
        }
      ],
      "stateMutability": "view",
      "type": "function"
    },
    {
      "inputs": [
        {
          "internalType": "uint256",
          "name": "",
          "type": "uint256"
        }
      ],
      "name": "creditMetadata",
      "outputs": [
        {
          "internalType": "string",
          "name": "projectId",
          "type": "string"
        },
        {
          "internalType": "string",
          "name": "projectName",
          "type": "string"
        },
        {
          "internalType": "enum CarbonCreditToken.CreditType",
          "name": "creditType",
          "type": "uint8"
        },
        {
          "internalType": "uint256",
          "name": "vintageYear",
          "type": "uint256"
        },
        {
          "internalType": "string",
          "name": "methodology",
          "type": "string"
        },
        {
          "internalType": "string",
          "name": "country",
          "type": "string"
        },
        {
          "internalType": "string",
          "name": "region",
          "type": "string"
        },
        {
          "internalType": "uint256",
          "name": "issuanceDate",
          "type": "uint256"
        },
        {
          "internalType": "string",
          "name": "verificationBody",
          "type": "string"
        },
        {
          "internalType": "string",
          "name": "ipfsHash",
          "type": "string"
        },
        {
          "internalType": "bool",
          "name": "isRetired",
          "type": "bool"
        },
        {
          "internalType": "address",
          "name": "retiredBy",
          "type": "address"
        },
        {
          "internalType": "uint256",
          "name": "retiredAt",
          "type": "uint256"
        }
      ],
      "stateMutability": "view",
      "type": "function"
    },
    {
      "inputs": [
        {
          "internalType": "uint256",
          "name": "",
          "type": "uint256"
        }
      ],
      "name": "creditOwner",
      "outputs": [
        {
          "internalType": "address",
          "name": "",
          "type": "address"
        }
      ],
      "stateMutability": "view",
      "type": "function"
    },
    {
      "inputs": [],
      "name": "decimals",
      "outputs": [
        {
          "internalType": "uint8",
          "name": "",
          "type": "uint8"
        }
      ],
      "stateMutability": "pure",
      "type": "function"
    },
    {
      "inputs": [
        {
          "internalType": "uint256",
          "name": "creditId",
          "type": "uint256"
        }
      ],
      "name": "getCreditMetadata",
      "outputs": [
        {
          "components": [
            {
              "internalType": "string",
              "name": "projectId",
              "type": "string"
            },
            {
              "internalType": "string",
              "name": "projectName",
              "type": "string"
            },
            {
              "internalType": "enum CarbonCreditToken.CreditType",
              "name": "creditType",
              "type": "uint8"
            },
            {
              "internalType": "uint256",
              "name": "vintageYear",
              "type": "uint256"
            },
            {
              "internalType": "string",
              "name": "methodology",
              "type": "string"
            },
            {
              "internalType": "string",
              "name": "country",
              "type": "string"
            },
            {
              "internalType": "string",
              "name": "region",
              "type": "string"
            },
            {
              "internalType": "uint256",
              "name": "issuanceDate",
              "type": "uint256"
            },
            {
              "internalType": "string",
              "name": "verificationBody",
              "type": "string"
            },
            {
              "internalType": "string",
              "name": "ipfsHash",
              "type": "string"
            },
            {
              "internalType": "bool",
              "name": "isRetired",
              "type": "bool"
            },
            {
              "internalType": "address",
              "name": "retiredBy",
              "type": "address"
            },
            {
              "internalType": "uint256",
              "name": "retiredAt",
              "type": "uint256"
            }
          ],
          "internalType": "struct CarbonCreditToken.CreditMetadata",
          "name": "",
          "type": "tuple"
        }
      ],
      "stateMutability": "view",
      "type": "function"
    },
    {
      "inputs": [
        {
          "internalType": "enum CarbonCreditToken.CreditType",
          "name": "creditType",
          "type": "uint8"
        }
      ],
      "name": "getCreditsByType",
      "outputs": [
        {
          "internalType": "uint256[]",
          "name": "",
          "type": "uint256[]"
        }
      ],
      "stateMutability": "view",
      "type": "function"
    },
    {
      "inputs": [
        {
          "internalType": "uint256",
          "name": "year",
          "type": "uint256"
        }
      ],
      "name": "getCreditsByVintage",
      "outputs": [
        {
          "internalType": "uint256[]",
          "name": "",
          "type": "uint256[]"
        }
      ],
      "stateMutability": "view",
      "type": "function"
    },
    {
      "inputs": [
        {
          "internalType": "string",
          "name": "projectId",
          "type": "string"
        }
      ],
      "name": "getProjectCredits",
      "outputs": [
        {
          "internalType": "uint256[]",
          "name": "",
          "type": "uint256[]"
        }
      ],
      "stateMutability": "view",
      "type": "function"
    },
    {
      "inputs": [
        {
          "internalType": "bytes32",
          "name": "role",
          "type": "bytes32"
        }
      ],
      "name": "getRoleAdmin",
      "outputs": [
        {
          "internalType": "bytes32",
          "name": "",
          "type": "bytes32"
        }
      ],
      "stateMutability": "view",
      "type": "function"
    },
    {
      "inputs": [],
      "name": "getStats",
      "outputs": [
        {
          "internalType": "uint256",
          "name": "totalSupply_",
          "type": "uint256"
        },
        {
          "internalType": "uint256",
          "name": "totalCredits",
          "type": "uint256"
        },
        {
          "internalType": "uint256",
          "name": "totalRetired",
          "type": "uint256"
        },
        {
          "internalType": "uint256",
          "name": "activeCredits",
          "type": "uint256"
        }
      ],
      "stateMutability": "view",
      "type": "function"
    },
    {
      "inputs": [
        {
          "internalType": "address",
          "name": "user",
          "type": "address"
        }
      ],
      "name": "getUserCredits",
      "outputs": [
        {
          "internalType": "uint256[]",
          "name": "",
          "type": "uint256[]"
        }
      ],
      "stateMutability": "view",
      "type": "function"
    },
    {
      "inputs": [
        {
          "internalType": "bytes32",
          "name": "role",
          "type": "bytes32"
        },
        {
          "internalType": "address",
          "name": "account",
          "type": "address"
        }
      ],
      "name": "grantRole",
      "outputs": [],
      "stateMutability": "nonpayable",
      "type": "function"
    },
    {
      "inputs": [
        {
          "internalType": "bytes32",
          "name": "role",
          "type": "bytes32"
        },
        {
          "internalType": "address",
          "name": "account",
          "type": "address"
        }
      ],
      "name": "hasRole",
      "outputs": [
        {
          "internalType": "bool",
          "name": "",
          "type": "bool"
        }
      ],
      "stateMutability": "view",
      "type": "function"
    },
    {
      "inputs": [
        {
          "internalType": "address",
          "name": "to",
          "type": "address"
        },
        {
          "internalType": "uint256",
          "name": "amount",
          "type": "uint256"
        },
        {
          "components": [
            {
              "internalType": "string",
              "name": "projectId",
              "type": "string"
            },
            {
              "internalType": "string",
              "name": "projectName",
              "type": "string"
            },
            {
              "internalType": "enum CarbonCreditToken.CreditType",
              "name": "creditType",
              "type": "uint8"
            },
            {
              "internalType": "uint256",
              "name": "vintageYear",
              "type": "uint256"
            },
            {
              "internalType": "string",
              "name": "methodology",
              "type": "string"
            },
            {
              "internalType": "string",
              "name": "country",
              "type": "string"
            },
            {
              "internalType": "string",
              "name": "region",
              "type": "string"
            },
            {
              "internalType": "uint256",
              "name": "issuanceDate",
              "type": "uint256"
            },
            {
              "internalType": "string",
              "name": "verificationBody",
              "type": "string"
            },
            {
              "internalType": "string",
              "name": "ipfsHash",
              "type": "string"
            },
            {
              "internalType": "bool",
              "name": "isRetired",
              "type": "bool"
            },
            {
              "internalType": "address",
              "name": "retiredBy",
              "type": "address"
            },
            {
              "internalType": "uint256",
              "name": "retiredAt",
              "type": "uint256"
            }
          ],
          "internalType": "struct CarbonCreditToken.CreditMetadata",
          "name": "metadata",
          "type": "tuple"
        }
      ],
      "name": "mintCredit",
      "outputs": [
        {
          "internalType": "uint256",
          "name": "",
          "type": "uint256"
        }
      ],
      "stateMutability": "nonpayable",
      "type": "function"
    },
    {
      "inputs": [],
      "name": "name",
      "outputs": [
        {
          "internalType": "string",
          "name": "",
          "type": "string"
        }
      ],
      "stateMutability": "view",
      "type": "function"
    },
    {
      "inputs": [],
      "name": "pause",
      "outputs": [],
      "stateMutability": "nonpayable",
      "type": "function"
    },
    {
      "inputs": [],
      "name": "paused",
      "outputs": [
        {
          "internalType": "bool",
          "name": "",
          "type": "bool"
        }
      ],
      "stateMutability": "view",
      "type": "function"
    },
    {
      "inputs": [
        {
          "internalType": "string",
          "name": "",
          "type": "string"
        },
        {
          "internalType": "uint256",
          "name": "",
          "type": "uint256"
        }
      ],
      "name": "projectCredits",
      "outputs": [
        {
          "internalType": "uint256",
          "name": "",
          "type": "uint256"
        }
      ],
      "stateMutability": "view",
      "type": "function"
    },
    {
      "inputs": [
        {
          "internalType": "bytes32",
          "name": "role",
          "type": "bytes32"
        },
        {
          "internalType": "address",
          "name": "callerConfirmation",
          "type": "address"
        }
      ],
      "name": "renounceRole",
      "outputs": [],
      "stateMutability": "nonpayable",
      "type": "function"
    },
    {
      "inputs": [
        {
          "internalType": "uint256",
          "name": "creditId",
          "type": "uint256"
        },
        {
          "internalType": "uint256",
          "name": "amount",
          "type": "uint256"
        },
        {
          "internalType": "string",
          "name": "reason",
          "type": "string"
        }
      ],
      "name": "retireCredit",
      "outputs": [],
      "stateMutability": "nonpayable",
      "type": "function"
    },
    {
      "inputs": [
        {
          "internalType": "bytes32",
          "name": "role",
          "type": "bytes32"
        },
        {
          "internalType": "address",
          "name": "account",
          "type": "address"
        }
      ],
      "name": "revokeRole",
      "outputs": [],
      "stateMutability": "nonpayable",
      "type": "function"
    },
    {
      "inputs": [
        {
          "internalType": "bytes4",
          "name": "interfaceId",
          "type": "bytes4"
        }
      ],
      "name": "supportsInterface",
      "outputs": [
        {
          "internalType": "bool",
          "name": "",
          "type": "bool"
        }
      ],
      "stateMutability": "view",
      "type": "function"
    },
    {
      "inputs": [],
      "name": "symbol",
      "outputs": [
        {
          "internalType": "string",
          "name": "",
          "type": "string"
        }
      ],
      "stateMutability": "view",
      "type": "function"
    },
    {
      "inputs": [],
      "name": "totalRetiredCredits",
      "outputs": [
        {
          "internalType": "uint256",
          "name": "",
          "type": "uint256"
        }
      ],
      "stateMutability": "view",
      "type": "function"
    },
    {
      "inputs": [],
      "name": "totalSupply",
      "outputs": [
        {
          "internalType": "uint256",
          "name": "",
          "type": "uint256"
        }
      ],
      "stateMutability": "view",
      "type": "function"
    },
    {
      "inputs": [
        {
          "internalType": "address",
          "name": "to",
          "type": "address"
        },
        {
          "internalType": "uint256",
          "name": "value",
          "type": "uint256"
        }
      ],
      "name": "transfer",
      "outputs": [
        {
          "internalType": "bool",
          "name": "",
          "type": "bool"
        }
      ],
      "stateMutability": "nonpayable",
      "type": "function"
    },
    {
      "inputs": [
        {
          "internalType": "address",
          "name": "from",
          "type": "address"
        },
        {
          "internalType": "address",
          "name": "to",
          "type": "address"
        },
        {
          "internalType": "uint256",
          "name": "value",
          "type": "uint256"
        }
      ],
      "name": "transferFrom",
      "outputs": [
        {
          "internalType": "bool",
          "name": "",
          "type": "bool"
        }
      ],
      "stateMutability": "nonpayable",
      "type": "function"
    },
    {
      "inputs": [],
      "name": "unpause",
      "outputs": [],
      "stateMutability": "nonpayable",
      "type": "function"
    },
    {
      "inputs": [
        {
          "internalType": "uint256",
          "name": "creditId",
          "type": "uint256"
        },
        {
          "internalType": "string",
          "name": "newIpfsHash",
          "type": "string"
        }
      ],
      "name": "updateMetadata",
      "outputs": [],
      "stateMutability": "nonpayable",
      "type": "function"
    },
    {
      "inputs": [
        {
          "internalType": "address",
          "name": "",
          "type": "address"
        },
        {
          "internalType": "uint256",
          "name": "",
          "type": "uint256"
        }
      ],
      "name": "userCredits",
      "outputs": [
        {
          "internalType": "uint256",
          "name": "",
          "type": "uint256"
        }
      ],
      "stateMutability": "view",
      "type": "function"
    },
    {
      "inputs": [
        {
          "internalType": "string",
          "name": "",
          "type": "string"
        }
      ],
      "name": "verifiedProjects",
      "outputs": [
        {
          "internalType": "bool",
          "name": "",
          "type": "bool"
        }
      ],
      "stateMutability": "view",
      "type": "function"
    },
    {
      "inputs": [
        {
          "internalType": "string",
          "name": "projectId",
          "type": "string"
        }
      ],
      "name": "verifyProject",
      "outputs": [],
      "stateMutability": "nonpayable",
      "type": "function"
    }
  ],
  "bytecode": "0x6080604052346200035e57620032fd803803806200001d8162000363565b9283398101906040818303126200035e5780516001600160401b0392908381116200035e57816200005091840162000389565b91602091828201518581116200035e576200006c920162000389565b9282518181116200025e576003908154906001958683811c9316801562000353575b868410146200033d578190601f93848111620002e7575b508690848311600114620002805760009262000274575b505060001982851b1c191690861b1782555b85519283116200025e5760049384548681811c9116801562000253575b828210146200023e57828111620001f3575b50809184116001146200018557508293949560009362000179575b505082851b92600019911b1c19161790555b6007556200013833620003fb565b5062000144336200047c565b5062000150336200051f565b506200015c33620005bd565b5062000168336200065b565b50604051612be39081620006fa8239f35b01519150388062000118565b9190601f198416968560005283600020936000905b898210620001db57505084879897969710620001c0575b50505050811b0190556200012a565b01519060f884600019921b161c1916905538808080620001b1565b8089859782949686015181550196019301906200019a565b85600052816000208380870160051c82019284881062000234575b0160051c019087905b82811062000227575050620000fd565b6000815501879062000217565b925081926200020e565b602286634e487b7160e01b6000525260246000fd5b90607f1690620000eb565b634e487b7160e01b600052604160045260246000fd5b015190503880620000bc565b90889350601f1983169186600052886000209260005b8a828210620002d05750508411620002b7575b505050811b018255620000ce565b015160001983871b60f8161c19169055388080620002a9565b8385015186558c9790950194938401930162000296565b90915084600052866000208480850160051c82019289861062000333575b918a91869594930160051c01915b82811062000323575050620000a5565b600081558594508a910162000313565b9250819262000305565b634e487b7160e01b600052602260045260246000fd5b92607f16926200008e565b600080fd5b6040519190601f01601f191682016001600160401b038111838210176200025e57604052565b919080601f840112156200035e5782516001600160401b0381116200025e57602090620003bf601f8201601f1916830162000363565b928184528282870101116200035e5760005b818110620003e757508260009394955001015290565b8581018301518482018401528201620003d1565b6001600160a01b031660008181527f05b8ccbb9d4d8fb16ea74ce3c29a41f1b461fbdaff4714a0d9a8eb05499746bc602052604081205490919060ff16620004785781805260056020526040822081835260205260408220600160ff198254161790553391600080516020620032dd8339815191528180a4600190565b5090565b6001600160a01b031660008181527f15a28d26fa1bf736cf7edc9922607171ccb09c3c73b808e7772a3013e068a52260205260408120549091907f9f2df0fed2c77648de5860a4cc508cd0818c85b8b8a1ab4ceeef8d981c8956a69060ff166200051a5780835260056020526040832082845260205260408320600160ff19825416179055600080516020620032dd833981519152339380a4600190565b505090565b6001600160a01b031660008181527faaf95d660e9852743affd5254660ce231923768f544e5555c0447d90a316341360205260408120549091907f0ce23c3e399818cfee81a7ab0880f714e53d7672b08df0fa62f2843416e1ea099060ff166200051a5780835260056020526040832082845260205260408320600160ff19825416179055600080516020620032dd833981519152339380a4600190565b6001600160a01b031660008181527f99f2891db7a8db76249871a02b43b68c0bb8f22ef8a3bc1034ae9375ef6b7c3c60205260408120549091907f65d7a28e3265b37a6474929f336521b332c1681b933f6cb9f3376673440d862a9060ff166200051a5780835260056020526040832082845260205260408320600160ff19825416179055600080516020620032dd833981519152339380a4600190565b6001600160a01b031660008181527f847f481f687befb06ed3511f1a8dcef57e83007c0147ae5047583d705617093760205260408120549091907f3c11d16cbaffd01df69ce1c404f6340ee057498f5f00246190ea54220576a8489060ff166200051a5780835260056020526040832082845260205260408320600160ff19825416179055600080516020620032dd833981519152339380a460019056fe608080604052600436101561001357600080fd5b60003560e01c90816301ffc9a7146124e45750806306fdde031461243e578063095ea7b3146123b857806313ce3b6e146122f357806317a483a3146122a957806318160ddd1461228b57806323b872dd14612199578063248a9ca31461216a578063282c51f31461212f5780632f2ff15d146120f0578063313ce5671461094057806336568abe146120a95780633f4ba83a1461203f5780634c38b2d21461126e57806353c8388e14611047578063591de1eb14610ff95780635c975abb14610fd657806370a0823114610f9c57806371a5ac8e14610cf7578063730d1b9f14610c0457806381b26dda14610b8c5780638456cb5914610b325780638a64911a14610a8b57806391d1485414610a3e57806395d89b411461095c578063a217fddf14610940578063a70e3bd6146108c7578063a9059cbb14610896578063b4461b0d146105d3578063c59d48471461057d578063d05b9d8e1461055f578063d20bc7a214610406578063d5391393146103cb578063d547741f1461038a578063dd62ed3e14610339578063e56fefa81461027b578063e63ab1e914610240578063e7705db6146102055763f570dd9f146101cc57600080fd5b3461020057602036600319011261020057600435600052600b602052602060018060a01b0360406000205416604051908152f35b600080fd5b346102005760003660031901126102005760206040517f0ce23c3e399818cfee81a7ab0880f714e53d7672b08df0fa62f2843416e1ea098152f35b346102005760003660031901126102005760206040517f65d7a28e3265b37a6474929f336521b332c1681b933f6cb9f3376673440d862a8152f35b3461020057602080600319360112610200576004359060085461029d81612b67565b9260009260015b838111156102f85785856102b781612b67565b9160005b8281106102d457604051806102d086826125ab565b0390f35b806102e26102f39284612b99565b516102ed8287612b99565b52612a9d565b6102bb565b8060005260098252826003604060002001541461031e575b61031990612a9d565b6102a4565b9361033181866102ed610319948a612b99565b949050610310565b346102005760403660031901126102005761035261257f565b61035a612595565b9060018060a01b038091166000526001602052604060002091166000526020526020604060002054604051908152f35b34610200576040366003190112610200576103c96004356103a9612595565b908060005260056020526103c460016040600020015461284c565b6128f2565b005b346102005760003660031901126102005760206040517f9f2df0fed2c77648de5860a4cc508cd0818c85b8b8a1ab4ceeef8d981c8956a68152f35b346102005760203660031901126102005760043560005260096020526040600020610430816126ee565b61043c600183016126ee565b91600281015460ff1660038201549060048301610458906126ee565b610464600585016126ee565b610470600686016126ee565b600786015491610482600888016126ee565b9361048f600989016126ee565b95600a89015498600b0154976040519b8c9b8c6101a08091528d016104b39161255a565b8c810360208e01526104c49161255a565b9160408c016104d2916126a7565b60608b015289810360808b01526104e89161255a565b88810360a08a01526104f99161255a565b87810360c089015261050a9161255a565b9060e08701528581036101008701526105229161255a565b8481036101208601526105349161255a565b60ff8316151561014085015260089290921c6001600160a01b03166101608401526101808301520390f35b34610200576000366003190112610200576020600d54604051908152f35b346102005760003660031901126102005760025460085490600d54808203908282116105bd57608093604051938452602084015260408301526060820152f35b634e487b7160e01b600052601160045260246000fd5b34610200576060366003190112610200576024356004356044356001600160401b03811161020057610609903690600401612651565b916002600754146108845760026007556008548211158061087b575b61062e90612b04565b610639811515612a36565b33600052602060008152816040600020541061082c57826000526009815260ff600a60406000200154166107e8578351156107a45760008381526009825260409020600a810180546001600160a81b0319163360081b610100600160a81b0316176001179055600b429101556106b182600d54612a90565b600d55331561078b576106c2612ae6565b33600052600081526040600020548281106107625782917f6e645d43ad6b4d6ac7990908850abab43295377322e3838a991d52d2addbc6db9360409233600052600083520382600020558260025403600255600082518481527fddf252ad1be2c89b69c2b068fc378daa952ba7f163c4a11628f55a4df523b3ef833392a38151928352820152806107583395604083019061255a565b0390a36001600755005b60405163391434e360e21b81523360048201526024810191909152604481019290925250606490fd5b604051634b637e8f60e11b815260006004820152602490fd5b6064906040519062461bcd60e51b82526004820152601a60248201527f436172626f6e4372656469743a20656d70747920726561736f6e0000000000006044820152fd5b6064906040519062461bcd60e51b82526004820152601d60248201527f436172626f6e4372656469743a20616c726561647920726574697265640000006044820152fd5b6084906040519062461bcd60e51b82526004820152602260248201527f436172626f6e4372656469743a20696e73756666696369656e742062616c616e604482015261636560f01b6064820152fd5b50811515610625565b604051633ee5aeb560e01b8152600490fd5b34610200576040366003190112610200576108bc6108b261257f565b6024359033612969565b602060405160018152f35b34610200576040366003190112610200576004356001600160401b038111610200576108f7903690600401612651565b6109136020602435928160405193828580945193849201612537565b8101600c815203019020805482101561020057602091610932916125e6565b90546040519160031b1c8152f35b3461020057600036600319011261020057602060405160008152f35b3461020057600036600319011261020057604051600060045461097e816126b4565b80845290600190818116908115610a1757506001146109bc575b6102d0846109a881860382612630565b60405191829160208352602083019061255a565b6004600090815292507f8a35acfbc15ff81a39ae7d344fd709f28e8600b4aa8c65c6b64bfe7fe36bd19b5b8284106109ff5750505081016020016109a882610998565b805460208587018101919091529093019281016109e7565b60ff191660208087019190915292151560051b850190920192506109a89150839050610998565b3461020057604036600319011261020057610a57612595565b600435600052600560205260406000209060018060a01b0316600052602052602060ff604060002054166040519015158152f35b3461020057602080600319360112610200576004356001600160401b0381116102005781610ac0610ad3923690600401612651565b8160405193828580945193849201612537565b8101600c81520301902090604051908181845491828152019360005281600020916000905b828210610b1b576102d085610b0f81890382612630565b604051918291826125ab565b835486529485019460019384019390910190610af8565b3461020057600036600319011261020057610b4b612794565b610b53612ae6565b600160ff1960065416176006557f62e78cea01bee320cd4e420270b5ea74000d11b0c9f74754ebdbfc544b05a2586020604051338152a1005b3461020057602080600319360112610200576001600160a01b03610bae61257f565b16600052600a8152604060002090604051908181845491828152019360005281600020916000905b828210610bed576102d085610b0f81890382612630565b835486529485019460019384019390910190610bd6565b34610200576020366003190112610200576004356001600160401b03811161020057610c34903690600401612651565b610c3c6127f0565b805115610cb2576040519080519160208181840194610c5c818388612537565b8101600e815203019020600160ff19825416179055610c8360405192839251938491612537565b80339281010390207f90db5b068a0f607666254099de8c19e8690031d656fb9fceab6ab617ead14294600080a3005b60405162461bcd60e51b815260206004820152601e60248201527f436172626f6e4372656469743a20656d7074792070726f6a65637420494400006044820152606490fd5b34610200576020366003190112610200576004356000610180604051610d1c81612614565b606081526060602082015282604082015282606082015260606080820152606060a0820152606060c08201528260e0820152606061010082015260606101208201528261014082015282610160820152015260085481111580610f93575b610d8390612b04565b6000526009602052604060002060405190610d9d82612614565b610da6816126ee565b8252610db4600182016126ee565b602083015260ff600282015416906008821015610f7d57600b91604084015260038101546060840152610de9600482016126ee565b6080840152610dfa600582016126ee565b60a0840152610e0b600682016126ee565b60c0840152600781015460e0840152610e26600882016126ee565b610100840152610e38600982016126ee565b610120840152600a81015460ff8116151561014085015260018060a01b039060081c166101608401520154610180820152604051809160208252610180610f4e610f36610f13610efd610ee7610eb5610e9f88516101a060208c01526101c08b019061255a565b60208901518a8203601f190160408c015261255a565b610ec7604089015160608b01906126a7565b606088015160808a01526080880151601f198a83030160a08b015261255a565b60a0870151888203601f190160c08a015261255a565b60c0860151878203601f190160e089015261255a565b60e0850151610100870152610100850151601f198783030161012088015261255a565b610120840151858203601f190161014087015261255a565b6101408301511515610160858101919091528301516001600160a01b0316828501529101516101a08301520390f35b634e487b7160e01b600052602160045260246000fd5b50801515610d7a565b34610200576020366003190112610200576001600160a01b03610fbd61257f565b1660005260006020526020604060002054604051908152f35b3461020057600036600319011261020057602060ff600654166040519015158152f35b34610200576020366003190112610200576004356001600160401b0381116102005760ff6110316020610ac081943690600401612651565b8101600e81520301902054166040519015158152f35b34610200576040366003190112610200576001600160401b036004356024358281116102005761107b903690600401612651565b6110836127f0565b60085482111580611265575b61109890612b04565b80511561122057816000526020600981526009604060002001825194851161120a576110c481546126b4565b601f81116111c4575b5081601f861160011461113f5794807f459157ba24c7ab9878b165ef465fa6ae2ab42bcd8445f576be378768b0c473099596600091611134575b508160011b916000199060031b1c19161790555b61112f60405192828493845283019061255a565b0390a2005b905084015187611107565b601f1986169082600052836000209160005b8181106111ad57509187917f459157ba24c7ab9878b165ef465fa6ae2ab42bcd8445f576be378768b0c47309979860019410611194575b5050811b01905561111b565b86015160001960f88460031b161c191690558780611188565b91928560018192868a015181550194019201611151565b8160005282600020601f870160051c810191848810611200575b601f0160051c01905b8181106111f457506110cd565b600081556001016111e7565b90915081906111de565b634e487b7160e01b600052604160045260246000fd5b60405162461bcd60e51b815260206004820152601d60248201527f436172626f6e4372656469743a20656d707479204950465320686173680000006044820152606490fd5b5081151561108f565b34610200576003196060368201126102005761128861257f565b906001600160401b0360443511610200576101a0906044353603011261020057604051906112b582612614565b604435600401356001600160401b038111610200576112dc90600436916044350101612651565b8252602460443501356001600160401b0381116102005761130590600436916044350101612651565b6020830152604480350135600881101561020057604083015260443560648101356060840152608401356001600160401b0381116102005761134f90600436916044350101612651565b608083015260a460443501356001600160401b0381116102005761137b90600436916044350101612651565b60a083015260c460443501356001600160401b038111610200576113a790600436916044350101612651565b60c083015260443560e481013560e084015261010401356001600160401b038111610200576113de90600436916044350101612651565b61010083015261012460443501356001600160401b0381116102005761140c90600436916044350101612651565b610120830152610144604435013580151581036102005761014083015260443561016401356001600160a01b03811690036102005760443561016481013561016084015261018401356101808301523360009081527f15a28d26fa1bf736cf7edc9922607171ccb09c3c73b808e7772a3013e068a52260205260409020547f9f2df0fed2c77648de5860a4cc508cd0818c85b8b8a1ab4ceeef8d981c8956a69060ff161561202157506114bd612ae6565b6001600160a01b03811615611fd1576114d96024351515612a36565b60ff6114f5602084518160405193828580945193849201612537565b8101600e815203019020541615611f815760608201516301e133804204906107b282018092116105bd5711611f315761152f600854612a9d565b9081600855816000526009602052604060002083518051906001600160401b03821161120a57819061156184546126b4565b601f8111611ee1575b50602090601f8311600114611e7557600092611e6a575b50508160011b916000199060031b1c19161781555b60208401518051906001600160401b03821161120a5781906115bb60018501546126b4565b601f8111611e17575b50602090601f8311600114611da557600092611d9a575b50508160011b916000199060031b1c19161760018201555b60408401516008811015610f7d5760ff801960028401541691161760028201556060840151600382015560808401518051906001600160401b03821161120a57819061164260048501546126b4565b601f8111611d47575b50602090601f8311600114611cda57600092611ccf575b50508160011b916000199060031b1c19161760048201555b60a08401518051906001600160401b03821161120a57819061169f60058501546126b4565b601f8111611c7c575b50602090601f8311600114611c0f57600092611c04575b50508160011b916000199060031b1c19161760058201555b60c08401518051906001600160401b03821161120a5781906116fc60068501546126b4565b601f8111611bb1575b50602090601f8311600114611b4457600092611b39575b50508160011b916000199060031b1c19161760068201555b60e084015160078201556101008401518051906001600160401b03821161120a57819061176460088501546126b4565b601f8111611ae6575b50602090601f8311600114611a7957600092611a6e575b50508160011b916000199060031b1c19161760088201555b6101208401518051906001600160401b03821161120a5781906117c260098501546126b4565b601f8111611a1b575b50602090601f83116001146119ae576000926119a3575b50508160011b916000199060031b1c19161760098201555b610140840151600a82018054610160870151610100600160a81b0360089190911b1692151560ff166001600160a81b031990911617919091179055610180840151600b918201556000838152600960209081526040808320426007820155600a908101805460ff1916905593825280832080546001600160a01b0319166001600160a01b038716908117909155835292905220611898908390612aac565b6118c5826118b6602086518160405193828580945193849201612537565b8101600c815203019020612aac565b6118cd612ae6565b6118db602435600254612a90565b6002556001600160a01b038116600081815260208181526040808320805460243590810190915590519081527fddf252ad1be2c89b69c2b068fc378daa952ba7f163c4a11628f55a4df523b3ef9190a360408351930151906008821015610f7d577fbbd3dd1be4525ebb2adfc516b335f25afeea5ae409e5e1d84b3ccf815d8e117d611983602095859361198e604051938493602435855260608b860152606085019061255a565b9660408401906126a7565b6001600160a01b0316940390a3604051908152f35b0151905086806117e2565b600985016000908152602081209350601f198516905b818110611a0357509084600195949392106119ea575b505050811b0160098201556117fa565b015160001960f88460031b161c191690558680806119da565b929360206001819287860151815501950193016119c4565b909150600984016000526020600020601f840160051c810160208510611a67575b90849392915b601f830160051c82018110611a585750506117cb565b60008155859450600101611a42565b5080611a3c565b015190508680611784565b600885016000908152602081209350601f198516905b818110611ace5750908460019594939210611ab5575b505050811b01600882015561179c565b015160001960f88460031b161c19169055868080611aa5565b92936020600181928786015181550195019301611a8f565b909150600884016000526020600020601f840160051c810160208510611b32575b90849392915b601f830160051c82018110611b2357505061176d565b60008155859450600101611b0d565b5080611b07565b01519050868061171c565b600685016000908152602081209350601f198516905b818110611b995750908460019594939210611b80575b505050811b016006820155611734565b015160001960f88460031b161c19169055868080611b70565b92936020600181928786015181550195019301611b5a565b909150600684016000526020600020601f840160051c810160208510611bfd575b90849392915b601f830160051c82018110611bee575050611705565b60008155859450600101611bd8565b5080611bd2565b0151905086806116bf565b600585016000908152602081209350601f198516905b818110611c645750908460019594939210611c4b575b505050811b0160058201556116d7565b015160001960f88460031b161c19169055868080611c3b565b92936020600181928786015181550195019301611c25565b909150600584016000526020600020601f840160051c810160208510611cc8575b90849392915b601f830160051c82018110611cb95750506116a8565b60008155859450600101611ca3565b5080611c9d565b015190508680611662565b600485016000908152602081209350601f198516905b818110611d2f5750908460019594939210611d16575b505050811b01600482015561167a565b015160001960f88460031b161c19169055868080611d06565b92936020600181928786015181550195019301611cf0565b909150600484016000526020600020601f840160051c810160208510611d93575b90849392915b601f830160051c82018110611d8457505061164b565b60008155859450600101611d6e565b5080611d68565b0151905086806115db565b9250600184016000526020600020906000935b601f1984168510611dfc576001945083601f19811610611de3575b505050811b0160018201556115f3565b015160001960f88460031b161c19169055868080611dd3565b81810151835560209485019460019093019290910190611db8565b909150600184016000526020600020601f840160051c810160208510611e63575b90849392915b601f830160051c82018110611e545750506115c4565b60008155859450600101611e3e565b5080611e38565b015190508680611581565b9250836000526020600020906000935b601f1984168510611ec6576001945083601f19811610611ead575b505050811b018155611596565b015160001960f88460031b161c19169055868080611ea0565b81810151835560209485019460019093019290910190611e85565b909150836000526020600020601f840160051c810160208510611f2a575b90849392915b601f830160051c82018110611f1b57505061156a565b60008155859450600101611f05565b5080611eff565b60405162461bcd60e51b815260206004820152602260248201527f436172626f6e4372656469743a20696e76616c69642076696e7461676520796560448201526130b960f11b6064820152608490fd5b60405162461bcd60e51b815260206004820152602260248201527f436172626f6e4372656469743a2070726f6a656374206e6f7420766572696669604482015261195960f21b6064820152608490fd5b60405162461bcd60e51b815260206004820152602260248201527f436172626f6e4372656469743a206d696e7420746f207a65726f206164647265604482015261737360f01b6064820152608490fd5b6044906040519063e2517d3f60e01b82523360048301526024820152fd5b3461020057600036600319011261020057612058612794565b60065460ff8116156120975760ff19166006557f5db9ee0a495bf2e6ff9c91a7834c1ba4fdd244a5e8aa4e537bd38aeae4b073aa6020604051338152a1005b604051638dfc202b60e01b8152600490fd5b34610200576040366003190112610200576120c2612595565b336001600160a01b038216036120de576103c9906004356128f2565b60405163334bd91960e11b8152600490fd5b34610200576040366003190112610200576103c960043561210f612595565b9080600052600560205261212a60016040600020015461284c565b612872565b346102005760003660031901126102005760206040517f3c11d16cbaffd01df69ce1c404f6340ee057498f5f00246190ea54220576a8488152f35b346102005760203660031901126102005760043560005260056020526020600160406000200154604051908152f35b34610200576060366003190112610200576121b261257f565b6121ba612595565b6001600160a01b038216600081815260016020908152604080832033845290915290205492604435929160001985106121f9575b506108bc9350612969565b83851061226557801561224c573315612233576108bc948491600052600160205260406000203360005260205203604060002055846121ee565b604051634a1406b160e11b815260006004820152602490fd5b60405163e602df0560e01b815260006004820152602490fd5b604051637dc7a0d960e11b81523360048201526024810186905260448101859052606490fd5b34610200576000366003190112610200576020600254604051908152f35b34610200576040366003190112610200576122c261257f565b6001600160a01b03166000908152600a602052604090208054602435919082101561020057602091610932916125e6565b34610200576020806003193601126102005760089060043582811015806102005783549061232082612b67565b9460009460015b8481111561236657878761233a81612b67565b9160005b82811061235357604051806102d086826125ab565b806102e26123619284612b99565b61233e565b80600052600982528360ff6002604060002001541690610f7d5783811015610f7d57861461239d575b61239890612a9d565b612327565b956123b081886102ed612398948c612b99565b96905061238f565b34610200576040366003190112610200576123d161257f565b60243590331561224c576001600160a01b031690811561223357336000526001602052604060002082600052602052806040600020556040519081527f8c5be1e5ebec7d5bd14f71427d1e84f3dd0314c0f7b2291e5b200ac8c7c3b92560203392a3602060405160018152f35b34610200576000366003190112610200576040516000600354612460816126b4565b80845290600190818116908115610a175750600114612489576102d0846109a881860382612630565b6003600090815292507fc2575a0e9e593c00f959f8c92f12db2869c3395a3b0502d05e2516446f71f85b5b8284106124cc5750505081016020016109a882610998565b805460208587018101919091529093019281016124b4565b34610200576020366003190112610200576004359063ffffffff60e01b821680920361020057602091637965db0b60e01b8114908115612526575b5015158152f35b6301ffc9a760e01b1490508361251f565b60005b83811061254a5750506000910152565b818101518382015260200161253a565b9060209161257381518092818552858086019101612537565b601f01601f1916010190565b600435906001600160a01b038216820361020057565b602435906001600160a01b038216820361020057565b6020908160408183019282815285518094520193019160005b8281106125d2575050505090565b8351855293810193928101926001016125c4565b80548210156125fe5760005260206000200190600090565b634e487b7160e01b600052603260045260246000fd5b6101a081019081106001600160401b0382111761120a57604052565b90601f801991011681019081106001600160401b0382111761120a57604052565b81601f82011215610200578035906001600160401b03821161120a5760405192612685601f8401601f191660200185612630565b8284526020838301011161020057816000926020809301838601378301015290565b906008821015610f7d5752565b90600182811c921680156126e4575b60208310146126ce57565b634e487b7160e01b600052602260045260246000fd5b91607f16916126c3565b9060405191826000825492612702846126b4565b908184526001948581169081600014612771575060011461272e575b505061272c92500383612630565b565b9093915060005260209081600020936000915b81831061275957505061272c9350820101388061271e565b85548884018501529485019487945091830191612741565b91505061272c94506020925060ff191682840152151560051b820101388061271e565b3360009081527f99f2891db7a8db76249871a02b43b68c0bb8f22ef8a3bc1034ae9375ef6b7c3c60205260409020547f65d7a28e3265b37a6474929f336521b332c1681b933f6cb9f3376673440d862a9060ff16156120215750565b3360009081527faaf95d660e9852743affd5254660ce231923768f544e5555c0447d90a316341360205260409020547f0ce23c3e399818cfee81a7ab0880f714e53d7672b08df0fa62f2843416e1ea099060ff16156120215750565b80600052600560205260406000203360005260205260ff60406000205416156120215750565b906000918083526005602052604083209160018060a01b03169182845260205260ff604084205416156000146128ed5780835260056020526040832082845260205260408320600160ff198254161790557f2f8788117e7eff1d82e926ec794901d17c78024a50270940304540a733656f0d339380a4600190565b505090565b906000918083526005602052604083209160018060a01b03169182845260205260ff6040842054166000146128ed578083526005602052604083208284526020526040832060ff1981541690557ff6391f5c32d9c69d2a47ea670b442974b53935d1edc7fd64eb21e047a839171b339380a4600190565b916001600160a01b0380841692831561078b5716928315612a1d5761298c612ae6565b600090838252816020526040822054908382106129eb575091604082827fddf252ad1be2c89b69c2b068fc378daa952ba7f163c4a11628f55a4df523b3ef958760209652828652038282205586815220818154019055604051908152a3565b60405163391434e360e21b81526001600160a01b03919091166004820152602481019190915260448101839052606490fd5b60405163ec442f0560e01b815260006004820152602490fd5b15612a3d57565b60405162461bcd60e51b815260206004820152602560248201527f436172626f6e4372656469743a20616d6f756e74206d75737420626520706f73604482015264697469766560d81b6064820152608490fd5b919082018092116105bd57565b60001981146105bd5760010190565b80546801000000000000000081101561120a57612ace916001820181556125e6565b819291549060031b91821b91600019901b1916179055565b60ff60065416612af257565b60405163d93c066560e01b8152600490fd5b15612b0b57565b60405162461bcd60e51b815260206004820152601f60248201527f436172626f6e4372656469743a20696e76616c696420637265646974204944006044820152606490fd5b6001600160401b03811161120a5760051b60200190565b90612b7182612b50565b612b7e6040519182612630565b8281528092612b8f601f1991612b50565b0190602036910137565b80518210156125fe5760209160051b01019056fea2646970667358221220d00cd53ea43b7d75c19a0cb8a6880bbc8bbd268ac9a80733efa7384ff4334da464736f6c634300081400332f8788117e7eff1d82e926ec794901d17c78024a50270940304540a733656f0d",
  "linkReferences": {},
  "deployedLinkReferences": {}
}